:040000000276C7328B
:03000B000206AF3B
:0100130032BA
:01001B0032B2
:0100230032AA
:01002B0032A2
:0B76C70075818012706DE58260030287
:0276D200002C8A
:0876D4007903E94400601B7A10
:0576DC000190775078D9
:0C76E1008D75A001E493F2A308B800022C
:0976ED0005A0D9F4DAF275A0FF42
:0876F600788DE84401600C7975
:0D76FE0002900000E4F0A3D8FCD9FAF6D801
:05770B00FD7521A275CF
:03771000220075DF
:0277130023024F
:03774D0002002C0B
:05002C0012003180FE0E
:0C003100C04085814075A70775A61E75AC
:0E003D00A6E1120C5C75A61E75A6E1438E0CA2
:0E004B0075895143B80843B70843B74043B81E
:0D0059000443B70443B72043B80285218259
:070066008522838523F012BF
:09006D000BB690009375F002122D
:0E0076000BB675A70775A61E75A6E112346FAE
:07008400120D3B1202711284
:02008B00349EA1
:06008D00854081D04022F5
:0E00930053797374656D20676F746F777920F1
:0100A100005E
:0E00A200537465726F776E696B206F67727AA8
:0E00B0006577616E69612076657220312E30B1
:0600BE0020244964240027
:067715007524F07525FF4C
:0C00C400C040858140C2AF43A2207900FB
:0C00D00090000175E00274E3C0E07400D1
:0700DC00C0E0C024C0252292
:0C00E300AAA274DF5AF5A2D2AF85E08219
:0600EF00854081D0402293
:0800F500C040858140AA82E5AC
:0C00FD004024FCF88682E54024FC04F856
:0D01090086037C008B83C2AF43A2207425C7
:09011600C0E07401C0E0C024C087
:06011F002579028AE022AE
:0C012500AAA274DF5AF5A2D2AF85E082D6
:06013100854081D0402250
:0A013700C040858140D310AF01C322
:0C014100C0D0AA82E54024FAF88682E5CE
:0D014D004024FA04F886037C008B8343A253
:0C015A0001E54024FCF88682E54024FC0E
:0E01660004F886037C008B83ABA274FE5BF56D
:0C017400A243A2207489C0E07401C0E026
:09018000C024C02579098AE0229F
:0A018900AAA274DF5AF5A285E082F5
:0A019300D0D092AF854081D0402209
:07771B00752C00E4F527F5D1
:0577220026E4F529F545
:0577270028752A007521
:02772C002B0030
:0C019D00C040858140058105810581C0BE
:0C01A900E0A84008D0E0A6827B00E54002
:0C01B5002402F87600E5402403F87600F0
:0A01C100E5402402F8B600028003B6
:0301CB00020269C4
:0D01CE00C003E5402403F8E675F007A42403
:0C01DB00E0FEE5F03409FF8E828F83E423
:0D01E70093FB740193FCA8400886027D0084
:0C01F400EBB50208ECB5050474018001B5
:01020000E419
:04020100D0036019AD
:0E02050074022EF582E43FF583E493FA74014F
:0B02130093FC8A03E5402402F876010A
:0C021E00E5402403F8E675F007A424E096
:0D022A00FAE5F03409FC8A828C83E493FD30
:0A023700740193FEBD0022BE001FFB
:0E02410074022AF582E43CF583E493FA74011A
:08024F0093FCBA000CBC00098D
:09025700E5402402F876017B92D7
:09026000E5402403F8060201C187
:020269008B8286
:06026B00854081D0402215
:06027100C04085814090B1
:0E02770000007490F09000017490F0D2A9D2B3
:010285008CEC
:06028600854081D04022FA
:06028C00C0408581409096
:060292000002E0FAF58213
:06029800854081D04022E8
:06029E00C0408581409084
:0602A4000001E0FAF58202
:0602AA00854081D04022D6
:0602B000C0408581409072
:0502B60000017490F04E
:0602BB00854081D04022C5
:0602C100C0408581409061
:0602C7000000E0FAF582E0
:0602CD00854081D04022B3
:0A02D300C0408581407A00E4FBF58D
:0502DD0027F526E4F501
:0302E20029F528D3
:0302E5003094173B
:0702E8000528E4B52802051A
:0102EF0029E5
:0902F000E52870F1E529B480EC69
:0602F9009000000203C4A6
:0302FF0020941731
:070302000528E4B5280205FF
:0103090029CA
:09030A00E52870F1E529B480EC4E
:060313009000000203C48B
:07031900E4F527F526E4F5E9
:0303200029F52894
:03032300309417FC
:070326000526E4B5260205DF
:01032D0027A8
:09032E00E52670F1E527B480EC2E
:060337009000000203C467
:03033D00209416F3
:070340000528E4B5280205C1
:01034700298C
:09034800E52870F1E529B480EC10
:05035100900000806E29
:08035600E5287004E52960624E
:09035E00AC26AD277E007F00757E
:0603670042907543017590
:0C036D0044007545008C828D838EF0EFFB
:0C0379001270BFAC82AD83AEF0FF85288F
:0303850042852985
:050388004375440075FF
:0D038D00450012717AAC82AD83AEF0FF74B2
:0E039A00EBC39CFCE49DFDE49EFEE49FFF8C03
:0C03A800028D03E4F54375420A8A828B43
:0C03B400831270A2AC82AD838C028D031A
:0403C0008A828B831F
:0603C400854081D04022BB
:0A03CA00C0408581407A00E4FBF595
:0503D40027F526E4F509
:0303D90029F528DB
:0303DC0030931744
:0703DF000528E4B528020522
:0103E60029ED
:0903E700E52870F1E529B480EC71
:0603F0009000000204BBB6
:0303F6002093173A
:0703F9000528E4B528020508
:0104000029D2
:09040100E52870F1E529B480EC56
:06040A009000000204BB9B
:07041000E4F527F526E4F5F1
:0304170029F5289C
:03041A0030931705
:07041D000526E4B5260205E7
:0104240027B0
:09042500E52670F1E527B480EC36
:06042E009000000204BB77
:03043400209316FC
:070437000528E4B5280205C9
:01043E002994
:09043F00E52870F1E529B480EC18
:05044800900000806E31
:08044D00E5287004E529606256
:09045500AC26AD277E007F007586
:06045E0042907543017598
:0C04640044007545008C828D838EF0EF03
:0C0470001270BFAC82AD83AEF0FF852897
:03047C004285298D
:05047F00437544007507
:0D048400450012717AAC82AD83AEF0FF74BA
:0E049100EBC39CFCE49DFDE49EFEE49FFF8C0B
:0C049F00028D03E4F54375420A8A828B4B
:0C04AB00831270A2AC82AD838C028D0322
:0404B7008A828B8327
:0604BB00854081D04022C3
:0A04C100C0408581407A00E4FBF59D
:0504CB0027F526E4F511
:0304D00029F528E3
:0304D3003092174D
:0704D6000528E4B52802052A
:0104DD0029F5
:0904DE00E52870F1E529B480EC79
:0604E7009000000205B2C6
:0304ED0020921743
:0704F0000528E4B528020510
:0104F70029DB
:0904F800E52870F1E529B480EC5F
:060501009000000205B2AB
:07050700E4F527F526E4F5F9
:03050E0029F528A4
:030511003092170E
:070514000526E4B5260205EF
:01051B0027B8
:09051C00E52670F1E527B480EC3E
:060525009000000205B287
:03052B0020921605
:07052E000528E4B5280205D1
:01053500299C
:09053600E52870F1E529B480EC20
:05053F00900000806E39
:08054400E5287004E52960625E
:09054C00AC26AD277E007F00758E
:06055500429075430175A0
:0C055B0044007545008C828D838EF0EF0B
:0C0567001270BFAC82AD83AEF0FF85289F
:0305730042852995
:0505760043754400750F
:0D057B00450012717AAC82AD83AEF0FF74C2
:0E058800EBC39CFCE49DFDE49EFEE49FFF8C13
:0C059600028D03E4F54375420A8A828B53
:0C05A200831270A2AC82AD838C028D032A
:0405AE008A828B832F
:0605B200854081D04022CB
:0A05B800C0408581407A00E4FBF5A5
:0505C20027F526E4F519
:0305C70029F528EB
:0305CA0030801767
:0705CD000528E4B528020532
:0105D40029FD
:0905D500E52870F1E529B480EC81
:0605DE009000000206A9D6
:0305E4002080175D
:0705E7000528E4B528020518
:0105EE0029E3
:0905EF00E52870F1E529B480EC67
:0605F8009000000206A9BC
:0705FE00E4F527F526E4F502
:0306050029F528AC
:0306080030801728
:07060B000526E4B5260205F7
:0106120027C0
:09061300E52670F1E527B480EC46
:06061C009000000206A997
:030622002080161F
:070625000528E4B5280205D9
:01062C0029A4
:09062D00E52870F1E529B480EC28
:05063600900000806E41
:08063B00E5287004E529606266
:09064300AC26AD277E007F007596
:06064C00429075430175A8
:0C06520044007545008C828D838EF0EF13
:0C065E001270BFAC82AD83AEF0FF8528A7
:03066A004285299D
:05066D00437544007517
:0D067200450012717AAC82AD83AEF0FF74CA
:0E067F00EBC39CFCE49DFDE49EFEE49FFF8C1B
:0C068D00028D03E4F54375420A8A828B5B
:0C069900831270A2AC82AD838C028D0332
:0406A5008A828B8337
:0606A900854081D04022D3
:0E06AF00C0E0C0F0C082C083C002C003C0041F
:0E06BD00C005C006C007C000C001C0D075D087
:0706CB0000C04085814005DD
:0606D2002BE52BB4400FE4
:0E06D8001202D3AA82AB83900179EAF0A3EB61
:0106E600F023
:0506E700E52BB4800FBB
:0E06EC001203CAAA82AB8390017BEAF0A3EB53
:0106FA00F00F
:0506FB00E52BB4C00F67
:0E0700001204C1AA82AB8390017DEAF0A3EB44
:01070E00F0FA
:05070F00E52BB4FF0F13
:0E0714001205B8AA82AB8390017FEAF0A3EB36
:01072200F0E6
:07072300E530B40102800380
:03072A0002089C26
:09072D00052AE52AB41E0280032E
:030736000207E5D2
:05073900AA2DAB2EAC5F
:0D073E002F8A828B838CF01271F5FAE4C0D3
:0B074B00E08A82120ACD1581AA2DABB6
:0C0756002EAC2F74042AFAE43BFB8A82CC
:0E0762008B838CF01271F5FAA31271F5FBA3D4
:0E0770001271F5FC8A828B838CF0120BB6AAF4
:04077E002DAB2EACC5
:0D0782002F740D2AFAE43BFB8A828B838CD6
:0E078F00F01271F5FAC374818AF063F0809560
:03079D00F05045D4
:0507A000AA2DAB2EACF8
:0D07A5002F8A828B838CF01271F5FA74029A
:0C07B200C0E08A82120ACD1581AA2DAB8E
:0C07BE002EAC2F740A2AFAE43BFB8A825E
:0E07CA008B838CF01271F5FAA31271F5FBA36C
:0D07D8001271F5FC8A828B838CF0120BB637
:0707E500E52AB43C02800389
:0307EC0002089C64
:0507EF00AA2DAB2EACA9
:0D07F4002F8A828B838CF01271F5FAE4C01D
:0B080100E08A82120ACD1581AA2DABFF
:08080C002EAC2F0ABA00010B0B
:0E0814008A828B838CF01271F5FAA31271F5B3
:0D082200FBA31271F5FC8A828B838CF0120F
:05082F000BB6AA2DAB81
:0C0834002EAC2F740D2AFAE43BFB8A82E4
:0E0840008B838CF01271F5FAC374818AF06319
:06084E00F08095F050451A
:05085400AA2DAB2EAC43
:0D0859002F8A828B838CF01271F5FA7401E6
:0C086600C0E08A82120ACD1581AA2DABD9
:0C0872002EAC2F74072AFAE43BFB8A82AC
:0E087E008B838CF01271F5FAA31271F5FBA3B7
:0D088C001271F5FC8A828B838CF0120BB682
:03089900752A00BD
:07089C00AA2C052CBA05008F
:0508A30050030209C032
:0D08A800752C007A00C285E580C313FB5358
:0708B500030FBB0F028030AE
:0E08BC007A014303108B82C00212019DAC82B0
:0708CA00D002BC9202801B6A
:0B08D100900000E0FDECB50502801077
:0B08DC00900002ECF0900000ECF090A7
:0508E70000017491F016
:0E08EC00D285C286E580C313FD740F5DFBBB91
:0408FA000F02803138
:0E08FE000A4303208B82C00212019DAD82D0FE
:08090C00028D04BC9202801B65
:0B091400900000E0FDECB50502801033
:0B091F00900002ECF0900000ECF09063
:05092A0000017491F0D2
:0E092F00D286C287E580C313FD740F5DFBBB4B
:04093D000F028031F4
:0E0941000A4303308B82C00212019DAD82D0AA
:08094F00028D04BC9202801B22
:0B095700900000E0FDECB505028010F0
:0B096200900002ECF0900000ECF09020
:05096D0000017491F08F
:0E097200D287C2B7E580C313FD740F5DFBBBD7
:040980000F028031B1
:0E0984000A4303408B82C00212019DAB82D059
:08099200028B04BC9202801BE1
:0B099A00900000E0FBECB503028010B1
:0B09A500900002ECF0900000ECF090DD
:0509B00000017491F04C
:0509B500D2B7BA0006F4
:0609BA009000007490F0B3
:0C09C000854081D040D0D0D001D000D0C4
:0E09CC0007D006D005D004D003D002D083D0CF
:0609DA0082D0F0D0E032F3
:0B09E0003E000000540A024700010026
:0709EB00560A02370002006A
:0709F200580A022700030070
:0709F9005A0A024B00040042
:070A00005C0A023B00050047
:070A07005E0A022B0006004D
:070A0E00600A024D00070021
:070A1500620A023D00080027
:070A1C00640A022D0009002D
:070A2300660A021700100033
:070A2A00680A021B00110025
:070A31006D0A024E001500E2
:070A3800730A022E001600F4
:070A3F00750A021E001300FE
:070A4600770A021D001400F5
:070A4D007D0A020000000019
:020A5400300070
:020A560031006D
:020A580032006A
:020A5A00330067
:020A5C00340064
:020A5E00350061
:020A600036005E
:020A620037005B
:020A6400380058
:020A6600390055
:050A68004C454654005E
:060A6D0052494748540005
:020A73002A0057
:020A750023005C
:060A7700434C4541520012
:060A7D00454E54455200F5
:0C0A8300C040858140AA82AB837C007DCE
:010A8F000066
:0E0A9000C3EC9AED64808BF063F08095F0501B
:010A9E000D4A
:0D0A9F0075A61E75A6E10CBC00E70D80E4F5
:060AAC00854081D04022CC
:0B0AB200C040858140D2A490012C12AE
:0A0ABD000A83C2A490012C120A83E0
:060AC700854081D04022B1
:080ACD00C040858140AA82E5CA
:070AD5004024FDF8B60010FB
:0E0ADC0074802AF5827401C0E0120B051581AA
:020AEA00801377
:0E0AEC00EA3395E0FB74C02AF5827401C0E085
:050AFA00120B0515813F
:060AFF00854081D0402279
:080B0500C040858140AA82E591
:070B0D004024FDF8E6602B17
:090B1400EAC4540F30E30244F07E
:0E0B1D00FB53030F748055A04BF5A0C00212CD
:0E0B2B000AB2D002740F5AFB748055A04BF52D
:060B3900A0120AB2803098
:090B3F00EAC4540F30E30244F053
:0E0B4800FB740F5B4440FB748055A04BF5A07E
:0E0B5600C002120AB2D002740F5A4440FA7460
:0B0B64008055A04AF5A0120AB2C2A6FC
:060B6F00854081D0402208
:0C0B7500C0408581407401C0E075820121
:050B8100120B051581B7
:060B8600854081D04022F1
:0C0B8C00C0408581407401C0E075820209
:050B9800120B051581A0
:060B9D00854081D04022DA
:090BA300C040858140E4C0E0126D
:040BAC000B0515819F
:060BB000854081D04022C7
:0C0BB600C040858140AA82AB83ACF07D7A
:010BC2000032
:0E0BC3008A828B838CF0C002C003C004C00580
:0E0BD1001271CDAE82AF83D005D004D003D018
:0E0BDF00028D007900C3E89EE964808FF06308
:060BED00F08095F0503588
:0E0BF30075A61E75A6E1ED2AFEE43BFF8C0000
:0E0C01008E828F8388F01271F5FEC002C00350
:0E0C0F00C004C005E4C0E08E82120B05158102
:0B0C1D00D005D004D003D0020D809B56
:060C2800854081D040224E
:0C0C2E00C0408581407401C0E075820F59
:050C3A00120B051581FD
:060C3F00854081D0402237
:0C0C4500C0408581407401C0E075820C45
:050C5100120B051581E6
:060C5600854081D0402220
:090C5C00C040858140900BB812E4
:0C0C65000A8375A003120AB2900BB812AB
:0C0C71000A8375A003120AB2900BB8129F
:0C0C7D000A8375A003120AB2900BB81293
:0C0C89000A8375A002120AB2900BB81288
:0E0C95000A837401C0E075820C120B051581F4
:070CA300120B75120B8C12FD
:080CAA000C45902710120A838B
:060CB200854081D04022C4
:06772E00E4F52FF52EF535
:057734002D7530017508
:06773900310075320075FD
:06773F00330075390075EE
:067745003A00753B0075DF
:02774B003C0000
:080CB800C040858140AA829032
:0E0CC0000003E0FB74012BFC900003F07D00AC
:0C0CCE00EB2405F582ED3400F583EAF01C
:080CDA00530407900003ECF045
:060CE200854081D0402294
:080CE800C0408581407A0090B4
:0E0CF0000003E0FB900004E0FCEBB504028082
:010CFE0020D5
:0D0CFF001B900003EBF08B047D00EC24053E
:0D0D0C00F582ED3400F583E0FC8C0253030A
:060D190007900003EBF05F
:020D1F008A82C6
:060D2100854081D0402254
:060D2700C04085814090F0
:080D2D000003E4F0900004F063
:060D3500854081D0402240
:0C0D3B00C040858140E581240BF58190CB
:0D0D47003812E493FA740193FB7C02A8407B
:0C0D540008760D087600087601C002C089
:0E0D600003C004120B75D004D003D0028A82A7
:0D0D6E008B838CF01271F5FDBDFF02800338
:030D7B00020E6401
:0E0D7E00C002C003C0047474C0E07401C0E081
:090D8C0074A6C0E07449C0E01235
:0E0D95007221E58124FCF581D004D003D00248
:0C0DA300A84008E5402406F9E6F708091E
:0D0DAF00E6F70809E6F7E5402404F8E4F64D
:020DBC0008F637
:0D0DBE00E5402404F8C3E6947408E69401AF
:050DCB004003020F3D92
:0B0DD0008A078B058C060ABA00010B95
:0E0DDB00C002C003C004C007C005758200122C
:0D0DE90000F515811581D004D003D002E57E
:0D0DF600402406F886820886830886F0E413
:0E0E0300127071A31818A68208A683C002C040
:0E0E110003C004E4C0E0758218120ACD1581FA
:0D0E1F00D004D003D002C002C003C004E51F
:0C0E2C00402404F8E6C0E008E6C0E074D2
:080E3800DDC0E07449C0E012C6
:0E0E40007221E58124FCF581D004D003D0029C
:0D0E4E0075A61E75A6E1E5402404F87401A8
:090E5B0026F6E40836F6020DBE8D
:0D0E6400C002C003C004E4C0E075820012AB
:0E0E71000ACD1581D004D003D002C002C00308
:0D0E7F00C0047474C0E07401C0E074E2C0EF
:0D0E8C00E07449C0E0127221E58124FCF5FC
:0D0E990081D004D003D002E5402409F8A662
:0D0EA6000208A60308A604A8400886050857
:090EB30086060886077A007B0020
:090EBC00C3EA9474EB9401507830
:0E0EC500C002C003C005C006C007E4C0E0754F
:0E0ED3008212120ACD1581D007D006D005D0AC
:0E0EE10003D002C002C003C005C006C007C097
:0C0EEF0002C00374DDC0E07449C0E012D2
:0E0EFB007221E58124FCF581D007D006D005D8
:0D0F0900D003D002E5402409F88682088656
:0E0F1600830886F01271F5FCA31818A6820855
:0E0F2400A6838D828E838FF0EC127071A3ADC8
:080F320082AE830ABA00010B34
:030F3A00020EBCE8
:060F3D00854081D0402236
:060F4300C04085814075ED
:050F49003000AA2DABF1
:0A0F4E002EAC2F8A828B838CF012E8
:0E0F580071F5FAE4C0E08A82120ACD1581AA72
:040F66002DAB2EACD5
:060F6A002F0ABA00010B82
:0E0F70008A828B838CF01271F5FAA31271F550
:0D0F7E00FBA31271F5FC8A828B838CF012AC
:050F8B000BB6AA2DAB1E
:0C0F90002EAC2F740D2AFAE43BFB8A8281
:0E0F9C008B838CF01271F5FAC374818AF063B6
:060FAA00F08095F05045B7
:050FB000AA2DAB2EACE0
:0D0FB5002F8A828B838CF01271F5FA740183
:0C0FC200C0E08A82120ACD1581AA2DAB76
:0C0FCE002EAC2F74072AFAE43BFB8A8249
:0E0FDA008B838CF01271F5FAA31271F5FBA354
:0D0FE8001271F5FC8A828B838CF0120BB61F
:0C0FF500E53175F03CA4240EFAE5F03460
:0C1001003CFB74042AFAE43BFBE532756A
:0E100D00F008A42AFAE5F03BFB74022AF582F3
:0C101B00E43BF583E493F52D740193F59C
:071027002E740293F52F75F2
:02102E0030018F
:06103000854081D0402242
:0C103600C040858140E5812405F581C0A3
:0C104200E0A84008D0E0A68275300090C5
:09104E00018175F001125EA7E5B5
:06105700402405F87600BC
:0C105D00E53175F03CA4240EFCE5F034F5
:0D1069003CFD74032CF582E43DF583E49317
:0A107600FE3395E0FF1EBEFF011FD0
:0D108000E5402405F886027B00C3EA9EEBE4
:0E108D0064808FF063F08095F040030212C57E
:0D109B0074042CFCE43DFDE5402405F8E65E
:0E10A80075F008A42CFCE5F03DFD74052CF558
:0E10B60082E43DF583E493FB740193FC740225
:0D10C40093FDE5402402F8A60308A60408E9
:0D10D100A605E5402402F8740126FEE4089F
:0E10DE0036FF0886028E828F838AF01271F52B
:0D10EC00FEE5402402F8868208868308860F
:0E10F900F01271F5FAC0068A82120ACD158136
:0C110700A84008E5402405F9E726C2D501
:0A11130075F00A30E704B2D5F404C9
:0E111D00A430D50AF42401C5F0F43400C5F066
:0C112B00240DFAE5F03400FE74022AF5F1
:0E11370082E43EF583E0FAA3E0FEA3E0FFA30E
:0E114500E0FBBA0048BE0045BF0042BB003FC1
:091153007413C0E0744AC0E012FC
:0D115C00722115811581E5402402F886827C
:0E1169000886830886F01271F5FA74032AF5E1
:0D11770082E4C0E0120ACD1581741FC0E0B3
:0C118400744AC0E012722115811581022E
:0211900012BC8F
:0C119200A84008E5402405F9E726C2D576
:0A119E0075F00A30E704B2D5F4043E
:0E11A800A430D50AF42401C5F0F43400C5F0DB
:0C11B600FAABF0EA240DFCEB3400FD74F1
:0E11C200022CFCE43DFD7E018C828D838EF0BC
:0E11D000C002C003126534D003D00290018229
:0E11DE00E0FC7D00900183E0FE7F00C002C0B7
:0D11EC0003C004C005C006C0077422C0E0A7
:0D11F900744AC0E0127221E58124FAF581EC
:0D120600D003D002C002C003742CC0E074FD
:0D1213004AC0E012722115811581D003D070
:0C12200002EA240DFCEB3400FD74062CE7
:0E122C00FCE43DFD7E018C828D838EF0C002BD
:0E123A00C003126534D003D002900182E0FCA4
:0E1248007D00900183E0FE7F00C002C003C065
:0C12560004C005C006C0077422C0E0748C
:0D1262004AC0E0127221E58124FAF581D026
:0D126F0003D002E5402402F8868208868341
:0E127C000886F01271F5FC74032CF582C00296
:0E128A00C003E4C0E0120ACD1581D003D002EB
:0C129800EA240DF582EB3400F583E0FA47
:0C12A400A3E0FBC002C003742EC0E07485
:0C12B0004AC0E0127221E58124FCF581A7
:0912BC00E5402405F80602105D6E
:0312C50075300180
:0612C800854081D04022A8
:0C12CE00C040858140058105810581AA92
:0E12DA008290018175F001C002125EA7D00261
:0A12E800900181E0FBE53DB5030D28
:0A12F200E54024FCF8B60102800379
:0312FC00021637A0
:0C12FF008B3DE54024FDF8E630E70302DB
:02130B00163793
:0D130D00C3748486F063F08095F0500302F5
:02131A00163784
:0D131C00E54024FDF8E625E0269013297336
:0713290002133802146602F2
:0613300015190213CF02A3
:0213360015BEE2
:0A133800753000E53175F03CA42487
:0C1342000EFBE5F0343CFC74042BFBE4D3
:0E134E003CFCC2D575F008EA30E704B2D5F4D5
:01135C00048C
:0E135D00A430D50AF42401C5F0F43400C5F024
:0E136B002BFBE5F03CFC74052BF582E43CF511
:0D13790083E493FB740193FC740293FDA8C0
:0C1386004008A60308A60408A605A8401D
:0E13920008740126FEE40836FF0886038E82EA
:0D13A0008F838BF01271F5FEA84008868245
:0E13AD000886830886F01271F5FBC0068B825D
:0C13BB00120ACD158190018175F001121D
:0613C7006A0E7530010200
:0213CD001637D1
:0A13CF00753000E53175F03CA424F0
:0C13D9000EFBE5F0343CFC74042BFBE43C
:0E13E5003CFCC2D575F008EA30E704B2D5F43E
:0113F30004F5
:0E13F400A430D50AF42401C5F0F43400C5F08D
:0E1402002BFBE5F03CFC74052BF582E43CF579
:0D14100083E493FA740193FB740293FCA82B
:0C141D004008A60208A60308A604A84088
:0E14290008740126FAE40836FB0886048A825D
:0D1437008B838CF01271F5FAA840088682B4
:0E1444000886830886F01271F5FBC0028B82C9
:0C145200120ACD158190018175F0011285
:06145E006B9F75300102D6
:02146400163739
:0C146600E53175F03CA4240EFAE5F034EA
:0C1472003CFB74042AFAE43BFBE53275F5
:0E147E00F008A42AFAE5F03BFB74052AF5827B
:0E148C00E43BF583E493FA740193FB7402933E
:0D149A00FCA84008A60208A60308A604A8A6
:0D14A7004008740126FAE40836FB088604AC
:0D14B4008A828B838CF01271F5FAA8400833
:0E14C10086820886830886F01271F5FBC00251
:0E14CF008B82120ACD1581900184E0FA7B0019
:0C14DD00900185E0FC7D000CBC00010DBE
:0E14E900900186E0FEA3E0FF74D02EFE740793
:0E14F7003FFFC002C003C004C005C006C0070E
:091505007433C0E0744AC0E01226
:0B150E007221E58124F8F581021637F8
:0C151900E53175F03CA4240EFAE5F03436
:0C1525003CFB74042AFAE43BFBE5327541
:0E153100F008A42AFAE5F03BFB74052AF582C7
:0E153F00E43BF583E493FA740193FB7402938A
:0D154D00FCA84008A60208A60308A604A8F2
:0D155A004008740126FAE40836FB088604F8
:0D1567008A828B838CF01271F5FAA840087F
:0E15740086820886830886F01271F5FBC0029D
:0E1582008B82120ACD1581900181E0FA7B0068
:0E159000900182E0FC7D00900183E0FE7F0070
:0D159E00C002C003C004C005C006C0077431
:0815AB0042C0E0744AC0E012E6
:0B15B3007221E58124F8F58102163753
:0C15BE00E53175F03CA4240EFAE5F03491
:0C15CA003CFB74042AFAE43BFBE532759C
:0E15D600F008A42AFAE5F03BFB74052AF58222
:0E15E400E43BF583E493FA740193FB740293E5
:0D15F200FCA84008A60208A60308A604A84D
:0D15FF004008740126FAE40836FB08860453
:0D160C008A828B838CF01271F5FAA84008D9
:0E16190086820886830886F01271F5FBC002F7
:0E1627008B82120ACD158190018175F001129F
:021635006CD671
:06163700854081D0402235
:0C163D00C040858140E5812406F581AAAB
:0E16490082AB83ACF090018175F001C002C04D
:0D16570003C004125EA7D004D003D002909F
:091664000181E0FDE53EB5050D34
:0A166D00E54024FDF8B601028003F9
:0316770002189EB8
:06167A007530008D3EE515
:06168000402403F876008F
:0C168600E53175F03CA4240EFEE5F034C4
:0D1692003CFF74032EF582E43FF583C00297
:0E169F00C003C004E493FA3395E0FB1ABAFFCF
:0216AD00011B1F
:0D16AF00E5402403F886047D00C3EC9AEDAD
:0E16BC0064808BF063F08095F0E433D004D0AE
:0816CA0003D002700302189B1B
:0D16D20074042EFEE43FFFE5402403F8E61B
:0E16DF0075F008A42EFEE5F03FFF74052EF511
:0E16ED0082E43FF583E493FD740193FE7402E2
:0C16FB0093FF8A828B838CF0A8400812B9
:0A17070071F5F6A31271F508F6A8BB
:0D1711004008C002C003C00474012DFAE4BA
:0E171E003EFB8F048A828B838CF01271F5FAE9
:0E172C008D828E838FF01271F5FBC002C00318
:0D173A00C004C005C006C007C0028B8212AB
:0E1747000ACD1581D007D006D005D004D003FE
:0E175500D00274032DFAE43EFB8F048A828BCF
:0E176300838CF01271F5FAA31271F5FBA3123C
:0E17710071F5FCC002C003C004C005C006C074
:0D177F0007A84008E6C0E008E6C0E0C00290
:0E178C00C003127221E58124FCF581D007D044
:0E179A0006D005D004D003D00274022DFAE46C
:0D17A8003EFB8F048A828B838CF0E5402489
:0D17B50006F81271F5F6E5402406F8C3E4CD
:0E17C20096E433D004D003D002700302188BDB
:0D17D0008A828B838CF0A840081271F5F618
:0B17DD00A31271F508F6A84008E4F51F
:0517E8004375420AA850
:0D17ED0040088682088683C002C003C00445
:0D17FA00C005C006C00712712DC0E0E5401B
:0E1807002404F8D0E0A68208A683D007D006FD
:0E181500D005D004D003D002C002C003C0042E
:0E18230074012DFAE43EFB8F048A828B838CC5
:0E183100F01271F5FA8D828E838FF01271F530
:0D183F00FDE5402406F8E62DF582C002C04C
:0E184C0003C004C002120ACD1581D004D003DF
:0D185A00D002C002C003C004E5402404F821
:0C186700E6C0E008E6C0E07451C0E07488
:0D1873004AC0E0127221E58124FCF581D00D
:0B18800004D003D002D004D003D0023B
:0D188B0074022AFAE43BFBE5402403F80652
:03189800021686AF
:03189B00753001A4
:06189E00854081D04022CC
:0B18A400C040858140E582FA20E73E4D
:0C18AF00C374838AF063F08095F040322F
:0818BB00EA25E02A9018C3732E
:0718C3000218CF0218D70242
:0518CA0018DF0218E721
:0818CF00E53924FF92B58016F3
:0818D700E53A24FF92B2800EF5
:0818DF00E53B24FF92B38006F3
:0618E700E53C24FF929095
:0618ED00854081D040227D
:0B18F300C040858140E582FA20E742FA
:0C18FE00C374838AF063F08095F04036DC
:08190A00EA25E02A901912738E
:0719120002191E0219270251
:0519190019300219392C
:09191E00E54024FDF8863980192A
:09192700E54024FDF8863A801029
:09193000E54024FDF8863B800728
:07193900E54024FDF8863CA7
:06194000854081D0402229
:0A194600C0408581400581AA82900F
:0D195000018175F001C002125EA7D0029067
:09195D000181E0FBE53FB5030840
:05196600BA010280033C
:03196B00021AAFAE
:06196E007530008B3FA85C
:0419740040087600B1
:0C197800E53175F03CA4240EFBE5F034D2
:0D1984003CFC74032BF582E43CF583E493F6
:0A199100FD3395E0FE1DBDFF011EB1
:0D199B00A8400886077A00C3EF9DEA64802B
:0C19A8008EF063F08095F04003021AAC52
:0619B400A84008B6040083
:0519BA004003021AA524
:0D19BF0074042BFBE43CFCA84008E675F026
:0E19CC0008A42BFBE5F03CFC74052BF582E42F
:0E19DA003CF583E493FA740193FB740293FCD2
:0E19E80074012AFDE43BFE8C078D828E838FF6
:0E19F600F01271F5FD8A828B838CF01271F570
:0E1A0400FA74042AF582C005120ACD1581A8D5
:0C1A1200400886027B00EA2475F582EB98
:0B1A1E003401F583E0FABA00028020DA
:051A2900BA0202800A70
:051A2E00BA040280274C
:051A3300BA086F8049B4
:091A38007455C0E0744AC0E012CC
:081A4100722115811581805C02
:091A4900742CC0E0744AC0E012E4
:081A5200722115811581804B02
:091A5A007457C0E0744AC0E012A8
:0D1A63007221158115817401C0E0A84008B2
:0D1A700086821218F31581A84008868212A4
:041A7D0018A4802405
:091A81007459C0E0744AC0E0127F
:0D1A8A00722115811581E4C0E0A840088696
:0C1A9700821218F31581A8400886821204
:021AA30018A485
:071AA500A8400806021978B1
:031AAC0075300191
:061AAF00854081D04022B9
:081AB500C040858140AA82E5D2
:0C1ABD004024FDF88603E54024FDF8C33A
:071AC900E6648094865002E0
:021AD0007B0099
:0D1AD200C2D575F002EA30E704B2D5F40485
:0E1ADF00A430D50AF42401C5F0F43400C5F09B
:0C1AED0024CAFAE5F03437FC74012AF535
:0B1AF90082E43CF583E493FAB503059A
:051B0400758201800361
:031B0900758200E2
:061B0C00854081D040225B
:0C1B1200C040858140E581240BF581E591
:0D1B1E00402403F8760090018175F001125B
:081B2B005EA7900183E0FB8B33
:051B3300357536007558
:061B38003700753800754E
:061B3E00421075430E7514
:061B440044007545008518
:061B4A003582853683851B
:051B500037F0E538123A
:071B550070BF858235858316
:051B5C003685F037F5AD
:0D1B610038900182E0FB75F03CA4FBACF075
:0A1B6E00E4FDFEEB2535F535EC35FE
:051B780036F536ED35E5
:051B7D0037F537EE35DD
:041B820038F538906A
:0E1B86000181E0FB7C00EC3395E0FDFEEB25D9
:051B940035F535EC35CC
:051B990036F536ED35C4
:051B9E0037F537EE35BC
:041BA30038F538E5F4
:061BA700402402F8760064
:081BAD00E5402402F8B6040033
:051BB5004003021E9335
:0C1BBA00A840087600E5402402F8E6751B
:0D1BC600F002A4FDAEF0E5402402F8E67543
:041BD300F009A4FF72
:061BD700A84008B6090059
:051BDD004003021E8A16
:0C1BE200C007E5402402F8E5402404F9A7
:0C1BEE00E6F7097700E5402404F8E6243F
:0C1BFA0075F58208E63401F583E0FFE495
:041C0600BF02010414
:041C0A00D00770206F
:0C1C0E00C007E5402404F8E62475F582C8
:0D1C1A0008E63401F583E0FFE4BF0001049B
:071C2700D0077003021E83C9
:0D1C2E00A84008E62FFA8A03900188E0FA2A
:0D1C3B00C003C005C006C007C0028B8212A6
:0E1C48001AB5AA821581D007D006D005D003A8
:051C5600E4BA010104E5
:051C5B007003021E836E
:0D1C6000EB75F00AA4C0E0E5402406F8D0C2
:0B1C6D00E0240DF6E5F0340008F6E579
:0D1C7800402406F8740226F582E40836F5D3
:0D1C850083E5402408F8E0F6A3E008F6A38C
:0D1C9200E008F6A3E008F6E5402408F8E6B7
:0B1C9F000846084608467003021E5667
:0A1CAA00E5402408F8C3E53596E58F
:081CB400360896E5370896E5B5
:081CBC003808965003021E27B0
:0D1CC400C007E5402406F8740626F582E40A
:0E1CD1000836F583E0FFA3E0FAA3E0FCA3E0F1
:091CDF00FBC3E5359FE5369AE5EB
:0C1CE800379CE5389BE433D00770030202
:021CF4001DF8D9
:0B1CF600C007ED2479FAEE3401FBE595
:0D1D0100402406F88682088683E0FCA3E0FB
:0C1D0E00FFE4F54375420A8C828F83C00D
:0E1D1A0002C003C005C006C0071270A2C0E0E0
:0D1D2800E5402408F8D0E0A68208A683D08C
:0D1D350007D006D005D003D002E5402403FE
:0D1D4200F886047F00E5402408F8E6C39C05
:0E1D4F00FC08E69FFF8A828B83E0FAA3E0FB8C
:0B1D5D00C3EA9CEB9FE433D007603822
:0C1D6800E5402404F8E62475F58208E646
:0D1D74003401F5837402F0C005C006C007FD
:0C1D81007401C0E0E5402402F8868212E4
:0D1D8D0018F31581D007D006D005E54024DD
:061D9A0003F87600805002
:0C1DA000ED2479F582EE3401F583E0FAC1
:0D1DAC00A3E0FBE5402408F8C3EA96EB082D
:031DB9009640341D
:0C1DBC00E5402404F8E62475F58208E6F2
:0D1DC8003401F583E4F0C005C006C007E457
:0D1DD500C0E0E5402402F886821218F315E4
:0D1DE20081D007D006D005E5402403F87637
:011DEF0001F2
:081DF000A840087609021E83D9
:0C1DF800E5402404F8E62475F58208E6B6
:0D1E04003401F583E4F0C005C006C007E41A
:0D1E1100C0E0E5402402F886821218F315A7
:091E1E0081D007D006D005805CDC
:0C1E2700E5402404F8E62475F58208E686
:0D1E33003401F583E4F0C005C006C007E4EB
:0D1E4000C0E0E5402402F886821218F31578
:091E4D0081D007D006D005802DDC
:0C1E5600E5402404F8E62475F58208E657
:0D1E62003401F583E4F0C005C006C007E4BC
:0D1E6F00C0E0E5402402F886821218F31549
:071E7C0081D007D006D0055C
:071E8300A8400806021BD76E
:091E8A00E5402402F806021BAD3C
:0E1E93007582001218A47582011218A47582BF
:0A1EA100021218A47582031218A49F
:061EAB00854081D04022B9
:061EB100C040858140E500
:041EB70031B405102D
:0E1EBB00E4C0E0E4C0E07582001212CE158192
:021EC900158181
:041ECB00E53160029B
:021ECF0080256C
:0E1ED100E4C0E090017975F00112163D158114
:0E1EDF00758200121946E4C0E07403C0E0757D
:091EED0082041212CE1581158148
:071EF600E531B4390280114F
:071EFD00E531B43702800A51
:071F0400E531B43602800351
:031F0B00121B1294
:031F0E00758200D9
:061F1100854081D0402252
:061F1700C040858140E599
:0B1F1D003175F03CA4240EFAE5F0340E
:0C1F28003CFB74042AFAE43BFBE5327534
:0E1F3400F008A42AF582E5F03BF583E493F56E
:061F420031120CE885825B
:011F48003266
:061F4900854081D040221A
:0C1F4F00C040858140AA82AB83ACF0FD4D
:091F5B007E007530008A048B053C
:051F6400BE0002800335
:031F6900021FE76D
:0E1F6C0075A61E75A6E1C002C003C004C00524
:0E1F7A00121EB1AF82D005D004D003D0028F6A
:041F880006BE00D8B9
:0E1F8C00C002C003C004C005C00612029EAF12
:0E1F9A0082D006D005D004D003D002BF91BC87
:0E1FA800C002C003C004C005C00612028C8532
:0D1FB6008233D006D005D004D003D002E560
:041FC30033B413061A
:061FC7008A048B057E0177
:0E1FCD00C002C003C004C005C0061202B0D09E
:0C1FDB0006D005D004D003D002021F6421
:0E1FE700C004C005121F17D005D004C004C0EE
:0D1FF50005C031758200126DA51581D00563
:0D200200D0047A007B008C828D838AF0EB85
:06200F00854081D0402253
:06201500C040858140750A
:06201B003000120B757489
:082021005BC0E0744AC0E0124C
:06202900722115811581F2
:08202F0012029EAA82BA912A56
:0D20370012028C858233E4C0E07582001235
:0D2044000ACD1581AA337B00C002C00374D1
:0820510089C0E0744AC0E012EE
:082059007221E58124FCF581F0
:0820610075A61E75A6E180C6FC
:06206900854081D04022F9
:0C206F00C040858140E5812408F581C057
:0C207B00E0A84008D0E0A68208A683E59B
:09208700402406F8E4F6F530A847
:0C2090004008E5402407F9E6F70809E6DF
:0C209C00F7E53175F03CA4240EFFE5F0E0
:0C20A800343CFC74042FFFE43CFCE532E7
:0E20B40075F008A42FFFE5F03CFC74052FF535
:0E20C20082E43CF583E493FA740193FB74020C
:0D20D00093FCE5402403F8A60208A60308CF
:0D20DD00A604E5402403F8740126FBE40886
:0E20EA0036FD0886068B828D838EF01271F50E
:0D20F80004FBE5402403F886820886830877
:0E21050086F01271F5FDC0038D82120ACD1511
:0A21130081A840088682126D1CE5C9
:0D211D00402403F8740126FBE40836FD0899
:02212A00860627
:0A212C00E5402406F8B60002800327
:032136000222B8CA
:0E213900C003C005C00675A61E75A6E1C00550
:0E214700C00612029EAB82D006D005E4BB910A
:02215500010483
:08215700D006D005D00360CDD5
:0D215F00C003C005C00612028C858233D07B
:0D216C0006D005D003E5402406F8B6010EAC
:0C217900A84008E5402407F9E6F7080933
:02218500E6F77B
:07218700E533B41002803BB8
:08218E00E533B411030222380D
:07219600E533B413028014CD
:07219D00E533B414028003D6
:0321A4000222A66E
:0A21A700E5402406F876010222A6A6
:0C21B100A84008E5402407F9E6F70809FB
:0C21BD00E6F7E5402406F876010222A6B1
:0D21C900E5402407F8740126F6E40836F618
:0D21D600E5402407F8C3740796E40896500E
:0121E3000BF0
:0B21E400E5402407F8E408F618760137
:0D21EF008B828D838EF01271F504FAE540AD
:0E21FC002403F886820886830886F01271F5A7
:0E220A00FCC003C005C006C0028C82120ACDC3
:0D2218001581D006D005D003E5402407F85D
:0E2225008682C003C005C006126D1CD006D014
:0522330005D003806EE0
:0C223800E5402407F8B6011108B6000DBF
:0D224400E5402407F8E408F6187607800E40
:0D225100E5402407F8E624FFF608E634FF18
:01225E00F689
:0D225F008B828D838EF01271F504FAE5403C
:0E226C002403F886820886830886F01271F536
:0E227A00FCC003C005C006C0028C82120ACD53
:0D2288001581D006D005D003E5402407F8ED
:0E2295008682C003C005C006126D1CD006D0A4
:0322A30005D00360
:0E22A600C003C005C0061202B0D006D005D09D
:0422B4000302212CD4
:0A22B80090018175F0011260DCE571
:0C22C200402407F88602900188EAF090A2
:0922CE00018175F0011262541245
:0822D7001F17C03175820012CF
:0D22DF006DA51581E5402407F8868208866C
:0122EC00836E
:0622ED00854081D0402273
:0C22F300C040858140E5812406F581ADE6
:0C22FF0082A840087601E5402403F8E4C2
:0D230B00F608F6E54024FAF8E4B6000104F7
:0D231800FE74012DFFE5402405F8A607E541
:06232500402406F8A607A3
:0B232B00A84008C3ED965003022550A7
:0D23360075A61E75A6E1C005C006C0071201
:0E2343001EB1AA82D007D006D005BA000280D3
:012351000388
:032352000225332E
:0D235500C00775A61E75A6E1C005C00612E2
:0D236200029EAF82D006D005E4BF910104B9
:04236F00D00760B87B
:0D237300C005C006C00712028C858233D061
:0B23800007D006D005C35003022466FE
:0A238B00C3E533940A400302246600
:0C239500A84008E54024FBF986F0E7B5FD
:0223A100F02B1F
:0D23A300C007AF337A00C005C006C007C0F8
:0C23B00007C00274BAC0E0744AC0E0121A
:0E23BC007221E58124FCF581D007D006D00502
:0423CA00D00780298F
:0D23CE00C007AA337F00C005C006C007C0CD
:0C23DB0002C00774BEC0E0744AC0E012EB
:0E23E7007221E58124FCF581D007D006D005D7
:0223F500D0070F
:0323F700EE603F56
:0923FA00C007E4F54375420AE551
:0D240300402403F88682088683C005C006C9
:0D2410001270A2AA82AF83D006D005E5406D
:0D241D002403F8A60208A607AA337F00E5F5
:0D242A00402403F8EA26F6EF0836F6D00746
:022437008026FD
:0D243900E540240304F8E618C454F0C6C4BE
:0D244600C666C654F0C66608F6AA337B00D1
:0C245300E5402403F8EA46F6EB0846F6E4
:07245F00A840080602252138
:08246600E533B4130302250C59
:07246E00E533B41402800302
:032475000225211C
:07247800E5402402F87600A4
:0D247F00C0078D037F00A8400886027C0086
:0D248C00EBC39AFBEF9CFFE5402402F886AD
:0E249900027C00C3EB9AEF64808CF063F0804D
:0824A70095F0E433D0077051F9
:0324AF00EE602FAD
:0724B200E4F54375420AE561
:0D24B900402403F88682088683C005C00613
:0E24C600C0071270A2AA82AB83D007D006D046
:0D24D40005E5402403F8A60208A6038016C3
:0D24E100E540240304F8E618C454F0C6C416
:0924EE00C666C654F0C66608F685
:0924F700E5402402F80602247FEE
:0C250000E5402405F8A94009E6F7801525
:0B250C00A84008A607E54024FCF8E505
:0A251700402403F9E6F70809E6F78F
:0E252100C005C006C0071202B0D007D006D019
:04252F000502232B53
:0C253300E54024FCF8E5402403F9E6F73D
:0C253F000809E6F7E5402406F8A9400969
:05254B00E6F702232B5E
:0A255000E5402403F8868208868324
:06255A00854081D0402203
:0C256000C040858140E5812411F581C058
:0C256C00E0A84008D0E0A682E54024046E
:0C257800F87600E5402405F8E4F6F530A4
:0C258400E53175F03CA4240EFDE5F034B8
:0C2590003CFE74042DFDE43EFEE53275B7
:0E259C00F008A42DFDE5F03EFE74052DF5823D
:0E25AA00E43EF583E493FD740193FE74029306
:0D25B800FFE540240AF8A60508A60608A6BF
:0D25C50007120C2EE540240AF886820886D5
:0E25D200830886F01271F5FCE4C0E08C8212E2
:0D25E0000ACD1581A84008E675F00AA4FC9C
:0C25ED00ABF0EC240DFAEB3400FD74029E
:0E25F9002AFAE43DFD7E018A828D838EF0C0B9
:0E26070003C004126534D004D003900182E0B9
:0E261500FA7D00900183E0FE7F00C003C00448
:0D262300C002C005C006C0077422C0E074EC
:0D2630004AC0E0127221E58124FAF581D044
:0C263D0004D003C003C004742CC0E0747F
:0D2649004AC0E012722115811581D004D025
:0C26560003EC240DFAEB3400FD74062A9E
:0E266200FAE43DFD7E018A828D838EF0C00376
:0E267000C004126534D004D003900182E0FA59
:0E267E007D00900183E0FE7F00C003C004C019
:0C268C0002C005C006C0077422C0E07444
:0D2698004AC0E0127221E58124FAF581D0DC
:0D26A50004D003E540240AF88682088683ED
:0E26B2000886F01271F5FA74152AF582C0033D
:0E26C000C004E4C0E0120ACD1581D004D0039E
:0C26CE00EC240DF582EB3400F583E0FAFB
:0D26DA00A3E0FDC003C004C002C005742EC3
:0D26E700C0E0744AC0E0127221E58124FCBD
:0C26F400F581D004D003E540240AF8E58D
:0D27000040240DF9740126F7E4083609F7AE
:0D270D000809E6F7E540240DF886820886ED
:0D271A00830886F01271F5FF74012FFAE5B7
:0D27270040240AF886820886830886F01296
:0E27340071F5FFC003C004C0028F82120ACDEF
:0E2742001581D004D003C003C004E4C0E0E45D
:0D275000C0E07499C0E0E4C0E075820212A0
:0E275D0022F3AA82AD83E58124FCF581D0042D
:0D276B00D003E5402402F8A60208A605E50B
:0D277800402402F8B6990608B60002802041
:0D278500E5402402F8C3742396E408965042
:0427920003022833E3
:0C279600E5402402F8E5402405F9E6F7D0
:0327A200022833D7
:0D27A500E540240DF886820886830886F042
:0D27B2001271F504FDE540240AF886820846
:0E27BF0086830886F01271F5FEC003C004C0C8
:0E27CD00058E82120ACD1581D004D003EC24B3
:0C27DB000DFDEB3400FE74022DFDE43E09
:0E27E700FEC004C0037B018D828E838BF0C088
:0E27F50003C004126534D004D003900183E0C9
:0D280300FB7C00C003C004C003C004742EA1
:0D281000C0E0744AC0E0127221E58124FC92
:0D281D00F581D004D003900183E0FBE5407D
:09282A002405F8A603D003D00434
:0D283300E540240DF886820886830886F0B3
:0D2840001271F504FDE540240AF8868208B7
:0E284D0086830886F01271F5FE74032EF58264
:0E285B00C003C004C005120ACD1581D004D000
:0E28690003C003C004E4C0E0E4C0E07499C002
:0E287700E0E4C0E07582021222F3AD82AE836F
:0D288500E58124FCF581D004D003E540245A
:0D28920002F8A60508A606E5402402F8B6E7
:08289F00990608B60002802032
:0D28A700E5402402F8C3745996E4089650E9
:0428B400030229589A
:0C28B800E5402402F8E5402404F9E6F7AE
:0328C4000229588E
:0D28C700E540240DF886820886830886F01F
:0D28D4001271F504FDE540240AF886820823
:0E28E10086830886F01271F5FE74032EF582D0
:0E28EF00C003C004C005120ACD1581D004D06C
:0C28FD0003EC240DFDEB3400FE74022DF2
:0E290900FDE43EFEC004C0037B018D828E8380
:0E2917008BF0C003C004126534D004D00390CE
:0E2925000182E0FB7C00C003C004C003C004BC
:09293300742EC0E0744AC0E012E9
:0D293C007221E58124FCF581D004D00390C8
:0D2949000182E0FBE5402404F8A603D00362
:02295600D004AB
:08295800E5402405F886357501
:062960003600753700751A
:06296600380075421075F7
:06296C00430E75440075E6
:0629720045008535828559
:0629780036838537F0E50F
:0A297E0038C003C0041270BF858248
:062988003585833685F061
:08298E0037F538D004D003E551
:0C299600402404F8E5402402F9E675F046
:0D29A2003CA4F709A7F0E5402402F88605E3
:0C29AF00088606E4FAFFED2535F535EE4C
:0629BB003536F536EA3561
:0529C10037F537EF358A
:0529C60038F538EC2497
:0C29CB000DFAEB3400FD74022AF582E4E2
:0C29D7003DF583E535F0A3E536F0A3E5FF
:0729E30037F0A3E538F0E531
:0D29EA0040240DF886820886830886F012CE
:0D29F70071F504FAE540240AF8868208868E
:0E2A0400830886F01271F5FD74062DF582C070
:0E2A120003C004C002120ACD1581D004D00307
:0E2A2000C003C004E4C0E0E4C0E07499C0E06C
:0E2A2E00E4C0E07582021222F3AA82AD83E5B5
:0D2A3C008124FCF581D004D003E540240284
:0D2A4900F8A60208A605E5402402F8B6999B
:072A56000608B60002802013
:0D2A5D00E5402402F8C3742396E408965067
:042A6A0003022B0632
:0C2A6E00E5402402F8E5402405F9E6F7F5
:032A7A00022B0626
:0D2A7D00E540240DF886820886830886F067
:0D2A8A001271F504FAE540240AF88682086E
:0E2A970086830886F01271F5FD74062DF58217
:0E2AA500C003C004C002120ACD1581D004D0B7
:0C2AB30003EC240DFAEB3400FD74062A3D
:0E2ABF00FAE43DFD7E018A828D838EF0C00315
:0E2ACD00C004126534D004D003900183E0FAF7
:0D2ADB007D00C003C004C002C005742EC001
:0D2AE800E0744AC0E0127221E58124FCF583
:0D2AF50081D004D003900183E0FAE5402475
:042B020005F8A6022A
:0D2B0600E540240DF886820886830886F0DD
:0D2B13001271F504FAE540240AF8868208E4
:0E2B200086830886F01271F5FD74092DF5828A
:0E2B2E00C003C004C002120ACD1581D004D02D
:0E2B3C0003C003C004E4C0E0E4C0E07499C02C
:0E2B4A00E0E4C0E07582021222F3AA82AD839D
:0D2B5800E58124FCF581D004D003E5402484
:0D2B650002F8A60208A605E5402402F8B615
:082B7200990608B6000280205C
:0D2B7A00E5402402F8C3745996E408965013
:042B870003022C23F6
:0C2B8B00E5402402F8E5402404F9E6F7D8
:032B9700022C23EA
:0D2B9A00E540240DF886820886830886F049
:0D2BA7001271F504FAE540240AF886820850
:0E2BB40086830886F01271F5FD74092DF582F6
:0E2BC200C003C004C002120ACD1581D004D099
:0C2BD00003EC240DFAEB3400FD74062A1F
:0E2BDC00FAE43DFD7E018A828D838EF0C003F7
:0E2BEA00C004126534D004D003900182E0FADA
:0D2BF8007D00C003C004C002C005742EC0E3
:0D2C0500E0744AC0E0127221E58124FCF564
:0D2C120081D004D003900182E0FAE5402457
:042C1F0004F8A6020D
:082C2300E5402405F886357533
:062C2B003600753700754C
:062C310038007542107529
:062C3700430E7544007518
:062C3D004500853582858B
:062C430036838537F0E541
:0A2C490038C003C0041270BF85827A
:062C53003585833685F093
:082C590037F538D004D003E583
:0C2C6100402404F8E5402402F9E675F078
:0D2C6D003CA4F709A7F0E5402402F8860218
:0C2C7A00088605E4FEFFEA2535F535ED7F
:062C86003536F536EE358F
:052C8C0037F537EF35BC
:052C910038F538EC24C9
:0C2C96000DFAEB3400FD74062AFEE43D4C
:0C2CA200FF8E828F83E535F0A3E536F04D
:092CAE00A3E537F0A3E538F0E5D9
:0D2CB700402410F874022AF6E43D08F6C02F
:0D2CC40004C003E5402410F88682088683D2
:0E2CD100E0FBA3E0FCA3E0FAA3E0FDC3EB955B
:062CDF0035EC9536EA9584
:0C2CE50037ED9538E433D003D004701EA6
:0D2CF100E5402410F88682088683E4F0A3F5
:0E2CFE00F0A3F0A3F08E828F83E4F0A3F0A386
:032D0C00F0A3F041
:0D2D0F00E540240DF886820886830886F0D2
:0D2D1C001271F504FAE540240AF8868208D9
:0E2D290086830886F01271F5FD74152DF58273
:0E2D3700C003C004C002120ACD1581D004D022
:0E2D450003C003C004E4C0E0E4C0E07499C021
:0E2D5300E0E4C0E07582021222F3AA82AD8392
:0D2D6100E58124FCF581D004D003E5402479
:0D2D6E0002F8A60208A605E5402402F8B60A
:082D7B00990608B6000280155C
:0B2D8300EC240DF582EB3400F583E535
:0A2D8E00402402F8E6F0A308E6F086
:092D9800EC240DFCEB3400FBE51A
:0D2DA100402406F8A60408A603087601A841
:0D2DAE004008E675F00AA4FDAEF090381262
:0E2DBB00E493FF740193FAED2FFDEE3AFE8DC6
:0C2DC900028E037C02E5402406F8E54081
:0E2DD500240DF9E6F70809E6F70809E6F7E528
:062DE300402409F876000F
:082DE900E5402409F8B60A00D8
:022DF100504B45
:0B2DF3008A068B078C050ABA00010B52
:0D2DFE00E540240DF886820886830886F0E3
:0E2E0B001271F5FDA31818A68208A683C00256
:0E2E1900C003C004C006C0078D821200F5156C
:0E2E2700811581D004D003D00275A61E75A6B9
:092E3500E1E5402409F80680AB38
:072E3E00120C45121F17C022
:092E450031758200126DA51581A2
:062E4E00854081D0402206
:0C2E5400C040858140E5812405F58175B2
:092E60003000E53175F03CA424BA
:0C2E69000EFAE5F0343CFB74042AFAE495
:0D2E75003BFBE53275F008A42AFAE5F03BBE
:0E2E8200FB74052AF582E43BF583E493FA74B1
:0D2E90000193FB740293FCE5402403F8A6B7
:0D2E9D000208A60308A604E5402403F8740B
:0E2EAA000126FDE40836FE0886078D828E8321
:0D2EB8008FF01271F504FDE5402403F8864B
:0E2EC500820886830886F01271F5FEC0058E25
:0A2ED30082120ACD1581120C2E9018
:092EDD00018175F0011260DC9026
:0E2EE6000183E0FD7E007401C0E0E4C0E0C0A6
:0E2EF40005C0067582021222F3AD82AE83E5A0
:0D2F02008124FCF581A84008A60508A6065C
:0D2F0F00900183E0FF7D00A84008E6B507B3
:082F1C000708E6B50502801666
:0C2F2400A84008C3742396E40896400AF5
:0A2F3000A840088605900183EDF02B
:0D2F3A00E5402403F8740126FDE40836FE8E
:0E2F47000886078D828E838FF01271F504FAD2
:0D2F5500E5402403F886820886830886F094
:0E2F62001271F5FB74032BF582C005C006C08A
:0E2F700007C002120ACD1581D007D006D00589
:0E2F7E00900182E0FA7B00C005C006C0077417
:0E2F8C0001C0E0E4C0E0C002C0037582021282
:0E2F9A0022F3AA82AB83E58124FCF581D007E7
:0D2FA800D006D005A84008A60208A6039098
:0D2FB5000182E0FA7B00A84008E6B50207A3
:072FC20008E6B503028016CA
:0C2FC900A84008C3745996E40896400A1A
:0A2FD500A840088602900182EAF08D
:0D2FDF008D828E838FF01271F504FDE540A8
:0E2FEC002403F886820886830886F01271F5A9
:0E2FFA00FA74062AF582C005120ACD158190E0
:0E3008000181E0FA7B007401C0E0E4C0E0C08A
:0E30160002C0037582021222F3AA82AB83E588
:0D3024008124FCF581A84008A60208A6033F
:0D303100900181E0FA7B00A84008E6B5029E
:08303E000708E6B50302801645
:0C304600A84008C3745996E40896400A9C
:0A305200A840088602900181EAF010
:0A305C0090018175F0011262541218
:063066000C45121F17C00B
:09306C0031758200126DA5158179
:06307500854081D04022DD
:0C307B00C040858140E5812407F581C03C
:0C308700E0A84008D0E0A682753000E50B
:0B3093003175F03CA4240EFBE5F03486
:0C309E003CFC74042BFBE43CFCE53275A8
:0E30AA00F008A42BFBE5F03CFC74052BF5822E
:0E30B800E43CF583E493FB740193FC740293F3
:0D30C600FDE5402402F8A60308A60408A6B4
:0D30D30005E5402402F8740126FEE40836ED
:0E30E000FF0886028E828F838AF01271F5043B
:0D30EE00FEE5402402F886820886830886ED
:0E30FB00F01271F5FAC0068A82120ACD158114
:0A310900120C2E90018175F00112E6
:0E31130060DC7401C0E0E4C0E07404C0E0744D
:0E31210020C0E07582041222F3AA82AE83E57C
:0E312F008124FCF581C3EA9404EE9420400C48
:0C313D008A077B00900186EFF0A3EBF006
:0C314900E5402402F8E5402405F974017B
:0D31550026F7E4083609F70809E6F7E5401B
:0E3162002405F886820886830886F01271F52F
:0D317000FF74012FFAE5402402F886820862
:0E317D0086830886F01271F5FF74052FF58227
:0E318B00C002120ACD1581900185E0FFE4FB21
:0D319900C0E0E4C0E0C007C0037582021270
:0E31A60022F3AB82AC83E58124FCF5818B0221
:0E31B4008C06900185E0FB7C00EAB50306EE78
:0531C200B50402800CC1
:0531C7001ABAFF011E11
:0731CC008A03900185EBF07E
:0D31D300E5402405F886820886830886F012
:0D31E0001271F504FBE5402402F886820818
:0E31ED0086830886F01271F5FC74082CF582BA
:0E31FB00C003120ACD1581900184E0FB7C0018
:0D320900A84008E6C0E0E4C0E0C003C00437
:0E3216007582021222F3AB82AC83E58124FCA8
:0E322400F5818B028C06900184E0FB7C00EAB1
:09323200B50306EEB504028005A7
:05323B00900184EAF09F
:0A32400090018175F0011262541232
:06324A000C45121F17C025
:0932500031758200126DA5158193
:06325900854081D04022F7
:08325F00C0408581407A007532
:02326700300134
:05326900BA0002800321
:03326E0002341B0C
:0E32710075A61E75A6E1121EB1AB828B02BAC5
:02327F0000E865
:0C328100C00212029EAB82D002BB91DCA6
:0B328D00C00212028C858233D002E5E3
:0732980033B410030233748C
:08329F00E533B41103023345CD
:0832A700E533B41303023333D5
:0732AF00E533B414028013A3
:0832B600E533B415030233A255
:0832BE00E533B416030233DB13
:0332C600023411BE
:0C32C900E53175F03CA4240EFBE5F03468
:0C32D5003CFC74042BFDE43CFEE532756B
:0E32E100F008A4FAAFF0EA2DFDEF3EFE7401F6
:0D32EF002DF582E43EF583E493FDBDFE0560
:0532FC00121F178023E2
:0E33010074042BFBE43CFCEA2BFBEF3CFC7459
:0D330F00012BF582E43CF583E493F5318554
:06331C003282120CB875AC
:02332200320077
:0D332400C031758200126DA515817A01027D
:02333100341155
:09333300121F17C031758200124F
:09333C006DA515817A010234111E
:093345000532E53175F03CA424C9
:0C334E000EFBE5F0343CFC74032BF58210
:0D335A00E43CF583E493FBAC32ECB50303D7
:03336700753200BC
:0A336A00C002120F43D0020234111A
:073374001532E532B4FF1D24
:0C337B00E53175F03CA4240EFBE5F034B5
:0D3387003CFC74032BF582E43CF583E493D9
:04339400FB14F532FF
:0A339800C002120F43D002023411EC
:0433A200E5316003AE
:0333A600023411DD
:0B33A900AB327C00EB2475F582EC34A5
:0A33B40001F583E0FDBD0402800F67
:0C33BE00EB2475F582EC3401F5837404F7
:0333CA00F080444C
:0C33CD00EB2475F582EC3401F583E4F08C
:0233D90080363C
:0433DB00E531600276
:0233DF0080303C
:0B33E100AB327C00EB2475F582EC346D
:0A33EC0001F583E0FDBD0802800F2B
:0C33F600EB2475F582EC3401F5837408BB
:03340200F0800C4B
:0C340500EB2475F582EC3401F583E4F053
:0A341100C0021202B0D002023269BC
:06341B00854081D0402233
:07342100C040858140C2A7F5
:0E34280090018DE0FAA3E0FBC3EA94D0EB9490
:0334360007501329
:0E34390075A61E75A6E190018D74012AF0E4BF
:053447003BA3F080DC56
:03344C00209105C7
:05344F00753138801307
:0B345400758200126DFC858231C3E51B
:05345F0031943A400326
:03346400753100BF
:02346700D2A7EA
:06346900854081D04022E5
:07346F00C0408581407A0096
:08347600C3EA64809484501A3B
:0E347E00C002E4C0E08A821218F31581D00269
:0C348C008A82C0021218A4D0020A80DE5E
:06349800854081D04022B6
:06349E00C04085814012D0
:0734A4003421120D27D2AF05
:0734AB0075340175300012B9
:0934B2000B75E53175F03CA42412
:0C34BB000EF582E5F0343CF583E493FA52
:0E34C700740193FB740293FC8A828B838CF059
:0A34D500120BB6E53175F03CA4249B
:0C34DF000EFAE5F0343CFB74042AFAE419
:0D34EB003BFBE53275F008A42AFAE5F03B42
:0D34F800FB74022AF582E43BF583E493F5B2
:0A3505002D740193F52E740293F566
:06350F002FE531700302FC
:0235150036CAB4
:08351700E531B406030236E2BF
:08351F00E531B407030236EBAD
:08352700E531B408030236F49B
:08352F00E531B409030236FD89
:08353700E531B40A0302370676
:08353F00E531B40B0302370F64
:08354700E531B40C0302371852
:08354F00E531B40D0302372140
:08355700E531B40E0302372A2E
:08355F00E531B40F030237331C
:08356700E531B4100302373C0A
:08356F00E531B41103023744F9
:08357700E531B4120302374CE8
:08357F00E531B4130302374CDF
:08358700E531B4140302374CD6
:08358F00E531B4150302374CCD
:08359700E531B4160302374CC4
:08359F00E531B4170302374CBB
:0835A700E531B4180302374CB2
:0835AF00E531B4190302374CA9
:0835B700E531B41A0302374CA0
:0835BF00E531B41B0302374C97
:0835C700E531B41C0302374C8E
:0835CF00E531B41D0302374C85
:0835D700E531B41E0302374C7C
:0835DF00E531B41F0302374C73
:0835E700E531B4200302374C6A
:0835EF00E531B4210302374C61
:0835F700E531B4220302374C58
:0835FF00E531B4230302374C4F
:08360700E531B4240302374C45
:08360F00E531B4250302374C3C
:08361700E531B4260302374C33
:08361F00E531B4270302374C2A
:08362700E531B4280302374C21
:08362F00E531B4290302374C18
:08363700E531B42A0302374C0F
:08363F00E531B42B0302374C06
:08364700E531B42C0302374CFD
:08364F00E531B42D0302374CF4
:08365700E531B42E0302374CEB
:08365F00E531B42F0302374CE2
:08366700E531B4300302374CD9
:08366F00E531B4310302374CD0
:08367700E531B4320302374CC7
:08367F00E531B4330302374CBE
:08368700E531B4340302374CB5
:08368F00E531B4350302374CAC
:08369700E531B4360302377F70
:08369F00E531B4370302379C4A
:0736A700E531B43802800B8D
:0836AE00E531B4390302375A7B
:0336B6000237B424
:0D36B900758200E4F583F5F0121F4F7534A3
:0436C600000237B413
:0E36CA007401C0E090017975F00112163D15F3
:0A36D800817582011219460237B411
:0936E2007582001210360237B4A3
:0936EB007582031210360237B497
:0936F4007582061210360237B48B
:0936FD007582091210360237B47F
:0937060075820C1210360237B472
:09370F0075820F1210360237B466
:093718007582121210360237B45A
:093721007582151210360237B44E
:09372A007582181210360237B442
:0937330075821B1210360237B436
:08373C0075821E121036807028
:08374400758221121036806825
:0A374C00E53124EEF58212256075C8
:043756003400805A61
:0E375A007401C0E07404C0E07582001212CE4B
:0E37680015811581900188E0FA7B008A828B22
:093776008312206F7534008035C8
:0E377F007401C0E07401C0E07582001212CE29
:0D378D001581158175820112307B753400A5
:02379A00801895
:0E379C007401C0E07402C0E07582001212CE0B
:0A37AA0015811581122E54753400AC
:0737B400E534B401028003BB
:0337BB000234AB2A
:0637BE0012325F0234AB81
:0637C400854081D0402287
:0E37CA000000010002000305040505050606C7
:0E37D8000706080609000A000B000C050D0587
:0E37E6000E050F061006110612001300140047
:0E37F400150516051705180619061A061B00FE
:0E3802001C001D001E051F05200521062206C4
:0238100023068D
:02381200007D37
:0E38140000000F270000630000000F270000D7
:0E382200D00701000A0001000A0001000A00A0
:0E38300001001400000063000000E703000028
:0E383E0064000000C80001000A0001006300E1
:04384C00A000FF00D9
:04385000FFC14A0268
:03385400C24A0263
:03385700C34A025F
:05385A00C44A02FF005A
:03385F00C54A0255
:03386200CC4A024B
:03386500D34A0241
:05386800D44A02010733
:03386D00D54A0237
:03387000DD4A022C
:03387300E54A0221
:05387600E64A02010F0B
:03387B00E74A0217
:03387E00EE4A020D
:03388100F54A0203
:05388400F64A020116E6
:03388900F74A02F9
:03388C00FF4A02EE
:03388F00074B02E2
:05389200084B020123B8
:03389700094B02D8
:03389A000F4B02CF
:03389D00154B02C6
:0538A000164B0201219E
:0338A500174B02BC
:0338A8001E4B02B2
:0338AB00254B02A8
:0538AE002B4B02020596
:0338B300314B0294
:0338B6003C4B0286
:0338B900474B0278
:0538BC00484B02011160
:0338C100494B026E
:0338C400504B0264
:0338C700574B025A
:0538CA00584B0201193A
:0338CF00594B0250
:0338D200634B0243
:0338D5006D4B0236
:0538D8006E4B0201240B
:0338DD006F4B022C
:0338E000744B0224
:0338E300794B021C
:0538E6007A4B02010015
:0338EB007B4B0212
:0338EE007E4B020C
:0338F100814B0206
:0538F400824B02010EF1
:0338F900834B02FC
:0338FC00864B02F6
:0338FF00894B02F0
:053902008A4B02011CCC
:033907008B4B02E5
:03390A008E4B02DF
:03390D00914B02D9
:05391000924B02011CB6
:03391500934B02CF
:03391800984B02C7
:03391B009D4B02BF
:05391E009E4B02012494
:033923009F4B02B5
:03392600A44B02AD
:03392900A94B02A5
:05392C00AA4B02010995
:03393100AB4B029B
:03393400B24B0291
:03393700B94B0287
:05393A00BA4B0201126E
:03393F00BB4B027D
:03394200C54B0270
:03394500CF4B0263
:05394800D04B02012438
:03394D00D14B0259
:03395000D64B0251
:03395300DB4B0249
:05395600DC4B0201083A
:03395B00DD4B023F
:03395E00E54B0234
:03396100ED4B0229
:05396400EE4B02011111
:03396900EF4B021F
:03396C00F94B0212
:03396F00034C0204
:05397200044C02011DE0
:03397700054C02FA
:03397A000B4C02F1
:03397D00114C02E8
:05398000124C020124BD
:03398500134C02DE
:03398800184C02D6
:03398B001D4C02CE
:05398E001E4C020107C0
:033993001F4C02C4
:03399600264C02BA
:033999002D4C02B0
:05399C002E4C02010E9B
:0339A1002F4C02A6
:0339A400364C029C
:0339A7003D4C0292
:0539AA003E4C02011576
:0339AF003F4C0288
:0339B200474C027D
:0339B5004F4C0272
:0539B800504C02011D4E
:0339BD00514C0268
:0339C000574C025F
:0339C3005D4C0256
:0539C6005E4C0201242B
:0339CB005F4C024C
:0339CE00644C0244
:0339D100694C023C
:0539D4006A4C02011C19
:0339D9006B4C0232
:0339DC00714C0229
:0339DF00774C0220
:0539E200784C02010019
:0339E700794C0216
:0339EA007E4C020E
:0339ED00834C0206
:0539F000844C02010CF3
:0339F500854C02FC
:0339F8008A4C02F4
:0339FB008F4C02EC
:0539FE00904C020119CC
:033A0300914C02E1
:033A0600984C02D7
:033A09009F4C02CD
:053A0C00AB4C020200BA
:033A1100B74C02AD
:033A1400BB4C02A6
:033A1700BF4C029F
:053A1A00C04C0201098F
:033A1F00C14C0295
:033A2200C64C028D
:033A2500CB4C0285
:053A2800CC4C02010F6F
:033A2D00CD4C027B
:033A3000D34C0272
:033A3300D94C0269
:053A3600DA4C0201164C
:033A3B00DB4C025F
:033A3E00E04C0257
:033A4100E54C024F
:053A4400E64C02011C2C
:033A4900E74C0245
:033A4C00ED4C023C
:033A4F00F34C0233
:053A5200F44C02010F1D
:033A5700F54C0229
:033A5A00FA4C0221
:033A5D00FF4C0219
:053A6000004D020115FC
:033A6500014D020E
:033A68000F4D02FD
:033A6B001D4D02EC
:053A6E001E4D020105E0
:033A73001F4D02E2
:033A7600224D02DC
:033A7900254D02D6
:053A7C00264D020108C7
:033A8100274D02CC
:033A8400324D02BE
:033A87003D4D02B0
:053A8A003E4D02011396
:033A8F003F4D02A6
:033A9200484D029A
:033A9500514D028E
:053A9800524D02011C6B
:033A9D00534D0284
:033AA0005A4D027A
:033AA300614D0270
:053AA600624D02011752
:033AAB00634D0266
:033AAE00694D025D
:033AB1006F4D0254
:043AB400704D02014E
:093AB800FFFFFFC14A02080103EF
:063AC100714D020F01002F
:063AC7002E4A0215010366
:063ACD00764D0209010024
:063AD3002E4A020F010063
:063AD9002E4A0216010056
:063ADF002E4A021C01004A
:063AE5002E4A0209010057
:063AEB002E4A0212010048
:063AF100DD49020801009E
:063AF7007B4D02110100ED
:063AFD00814D021D0100D5
:063B0300DD49020701008C
:063B0900864D020E0102D0
:063B0F00DD490215010270
:063B1500DD49021D010064
:063B1B002E4A0207010022
:063B21002E4A020E010213
:063B2700DD490215010258
:063B2D00DD490223000344
:063B33008B4D022600008C
:063B39002E4A02250000E7
:063B3F00DD490225000033
:063B4500904D0225010075
:063B4B00954D022400026A
:063B5100DD49021C010029
:063B57009A4D022400005B
:063B5D009F4D0200010073
:063B6300A44D020C01005C
:063B6900A94D0216010047
:063B6F00AE4D020F010043
:063B7500B34D0200010047
:063B7B00B84D0209010330
:063B8100BD4D022500000D
:063B8700C24D021E000009
:063B8D00334A0220000093
:063B9300424A021C010081
:063B9900C74D021C0100F3
:063B9F00CD4D02150100EE
:063BA500DD4902080100E9
:063BAB00334A0213010081
:063BB100D34D021E0000CE
:063BB700334A0224000065
:063BBD00D84D02240100B6
:063BC300DD4D021C0100B3
:063BC900E24D021C0100A8
:063BCF00E74D02000102B7
:063BD500DD4902070102B8
:063BDB00DD49020F0102AA
:063BE100DD49021601029D
:063BE700DD490217010296
:063BED00EC4D0225000072
:063BF300F14D020001008B
:063BF900F64D020E010072
:063BFF00FB4D021C010059
:063C0500004E0210000059
:033C0B00054E0261
:063C0E000A4E0205000150
:033C14005E380215
:053C1700D23B02000297
:033C1C006C3802FF
:053C1F00D83B02000388
:033C24007A3802E9
:053C2700DE3B02000479
:033C2C00883802D3
:053C2F00E43B0200056A
:033C3400963802BD
:0C3C3700CC3B0200000000000000000078
:0C3C430000000000000000594E020400C8
:043C4F0006B238027F
:053C5300B83A02000771
:033C5800C038026F
:053C5B00B83A02000868
:033C6000CE380259
:053C6300B83A0200FE6A
:033C6800DC380243
:0C3C6B00B83A0200000000000000000059
:0E3C770000000000000000000000000000003F
:073C850000824E0204000959
:033C8C00B2380249
:053C8F00B83A02000A32
:033C9400C0380233
:053C9700B83A02000B29
:033C9C00CE38021D
:053C9F00B83A0200FE2E
:033CA400DC380207
:0C3CA700B83A020000000000000000001D
:0E3CB300000000000000000000000000000003
:073CC10000AB4E0204000CF1
:033CC800B238020D
:053CCB00B83A02000DF3
:033CD000C03802F7
:053CD300B83A02000EEA
:033CD800CE3802E1
:053CDB00B83A0200FEF2
:033CE000DC3802CB
:0C3CE300B83A02000000000000000000E1
:0E3CEF000000000000000000000000000000C7
:073CFD0000D44E0204000F89
:033D0400B23802D0
:053D0700B83A020010B3
:033D0C00C03802BA
:053D0F00B83A020011AA
:033D1400CE3802A4
:053D1700B83A0200FEB5
:033D1C00DC38028E
:0C3D1F00B83A02000000000000000000A4
:0E3D2B0000000000000000000000000000008A
:073D390000FD4E02040036FC
:033D4000E639025F
:053D4300603B020037A7
:033D4800F4390249
:053D4B00663B02003997
:033D5000AA3A028A
:053D5300EA3B0200FE46
:033D5800CA390263
:0C3D5B00B83A0200000000000000000068
:0E3D670000000000000000000000000000004E
:073D750000264F02040112B9
:033D7C00EA380220
:053D7F00F63B020113F8
:033D8400F838020A
:053D8700FC3B020114E9
:033D8C00063902F3
:053D8F00023C0201FEF0
:033D9400223902CF
:0C3D9700B83A020000000000000000002C
:0E3DA300000000000000000000000000000012
:073DB100004F4F0204011551
:033DB800EA3802E4
:053DBB00F63B020116B9
:033DC000F83802CE
:053DC300FC3B020117AA
:033DC800063902B7
:053DCB00023C0201FEB4
:033DD00022390293
:0C3DD300B83A02000000000000000000F0
:0E3DDF000000000000000000000000000000D6
:073DED0000784F02040118E9
:033DF400EA3802A8
:053DF700F63B0201197A
:033DFC00F8380292
:053DFF00FC3B02011A6B
:033E04000639027A
:053E0700023C0201FE77
:033E0C0022390256
:0C3E0F00B83A02000000000000000000B3
:0E3E1B00000000000000000000000000000099
:073E290000A14F0204021B7F
:033E3000EA38026B
:053E3300F63B02021C39
:033E3800F8380255
:053E3B00FC3B02021D2A
:033E40000639023E
:053E4300023C0201FE3B
:033E48002239021A
:0C3E4B00B83A0200000000000000000077
:0E3E570000000000000000000000000000005D
:073E650000CA4F0204021E17
:033E6C00EA38022F
:053E6F00F63B02021FFA
:033E7400F8380219
:053E7700FC3B020220EB
:033E7C0006390202
:053E7F00023C0202FEFE
:033E8400223902DE
:0C3E8700B83A020000000000000000003B
:0E3E9300000000000000000000000000000021
:073EA10000F34F02040221AF
:033EA800EA3802F3
:053EAB00F63B020222BB
:033EB000F83802DD
:053EB300FC3B020223AC
:033EB800063902C6
:053EBB00023C0202FEC2
:033EC000223902A2
:0C3EC300B83A02000000000000000000FF
:0E3ECF000000000000000000000000000000E5
:073EDD00001C500204032445
:033EE400EA3802B7
:053EE700F63B0203257B
:033EEC00F83802A1
:053EEF00FC3B0203266C
:033EF4000639028A
:053EF700023C0203FE85
:033EFC0022390266
:0C3EFF00B83A02000000000000000000C3
:0E3F0B000000000000000000000000000000A8
:073F190000455002040327DC
:033F2000EA38027A
:053F2300F63B0203283B
:033F2800F8380264
:053F2B00FC3B0203292C
:033F30000639024D
:053F3300023C0203FE48
:033F380022390229
:0C3F3B00B83A0200000000000000000086
:0E3F470000000000000000000000000000006C
:073F5500006E500204032A74
:033F5C00EA38023E
:053F5F00F63B02032BFC
:033F6400F8380228
:053F6700FC3B02032CED
:033F6C0006390211
:053F6F00023C0203FE0C
:033F7400223902ED
:0C3F7700B83A020000000000000000004A
:0E3F8300000000000000000000000000000030
:073F91000097500204042D0B
:033F9800EA380202
:053F9B00F63B02042EBC
:033FA000F83802EC
:053FA300FC3B02042FAD
:033FA800063902D5
:053FAB00023C0204FECF
:033FB000223902B1
:0C3FB300B83A020000000000000000000E
:0E3FBF000000000000000000000000000000F4
:073FCD0000C05002040430A3
:033FD400EA3802C6
:053FD700F63B0204317D
:033FDC00F83802B0
:053FDF00FC3B0204326E
:033FE40006390299
:053FE700023C0204FE93
:033FEC0022390275
:0C3FEF00B83A02000000000000000000D2
:0E3FFB000000000000000000000000000000B8
:0740090000E950020404333A
:03401000EA380289
:05401300F63B0204343D
:03401800F8380273
:05401B00FC3B0204352E
:034020000639025C
:05402300023C0204FE56
:0340280022390238
:0C402B00B83A0200000000000000000095
:0E40370000000000000000000000000000007B
:07404500001251020206FF08
:03404C00503802E7
:0C404F00083C020000000000000000001F
:0E405B00000000000000000000000000000057
:0E406900000000000000000000000000000049
:0C407700000000000000000000000063DA
:0640830051020206FF508D
:03408900380208F2
:0D408C003C020000000000000000000000E9
:0E409900000000000000000000000000000019
:0E40A70000000000000000000000000000000B
:0C40B500000000000000000000B45102F8
:0640C1000206FF50380268
:0C40C700083C02000000000000000000A7
:0E40D3000000000000000000000000000000DF
:0E40E1000000000000000000000000000000D1
:0C40EF00000000000000000000000005C0
:0640FB0052020207FF5013
:0341010038020879
:0D4104003C02000000000000000000000070
:0E4111000000000000000000000000000000A0
:0E411F00000000000000000000000000000092
:0C412D00000000000000000000565202DC
:064139000207FF503802EE
:0C413F00083C020000000000000000002E
:0E414B00000000000000000000000000000066
:0E415900000000000000000000000000000058
:0C4167000000000000000000000000A7A5
:0641730052020207FF509A
:0341790038020801
:0D417C003C020000000000000000000000F8
:0E418900000000000000000000000000000028
:0E41970000000000000000000000000000001A
:0C41A500000000000000000000F85202C2
:0641B1000208FF50380275
:0C41B700083C02000000000000000000B6
:0E41C3000000000000000000000000000000EE
:0E41D1000000000000000000000000000000E0
:0C41DF000000000000000000000000498B
:0641EB0053020208FF5020
:0341F10038020889
:0D41F4003C02000000000000000000000080
:0E4201000000000000000000000000000000AF
:0E420F000000000000000000000000000000A1
:0C421D000000000000000000009A5302A6
:064229000208FF503802FC
:0C422F00083C020000000000000000003D
:0E423B00000000000000000000000000000075
:0E424900000000000000000000000000000067
:0C4257000000000000000000000000EB70
:0642630053020209FF50A6
:0342690038020810
:0D426C003C02000000000000000000000007
:0E427900000000000000000000000000000037
:0E428700000000000000000000000000000029
:0C4295000000000000000000003C54028B
:0642A1000209FF50380283
:0C42A700083C02000000000000000000C5
:0E42B3000000000000000000000000000000FD
:0E42C1000000000000000000000000000000EF
:0C42CF0000000000000000000000008D56
:0642DB0054020209FF502D
:0342E10038020898
:0D42E4003C0200000000000000000000008F
:0E42F1000000000000000000000000000000BF
:0E42FF000000000000000000000000000000B1
:0C430D00000000000000000000DE540270
:06431900020AFF50380209
:0C431F00083C020000000000000000004C
:0E432B00000000000000000000000000000084
:0E433900000000000000000000000000000076
:0C43470000000000000000000000002F3B
:064353005502020AFF50B2
:034359003802081F
:0D435C003C02000000000000000000000016
:0E436900000000000000000000000000000046
:0E437700000000000000000000000000000038
:0C43850000000000000000000080550255
:06439100020AFF50380291
:0C439700083C02000000000000000000D4
:0E43A30000000000000000000000000000000C
:0E43B1000000000000000000000000000000FE
:0C43BF000000000000000000000000D121
:0643CB005502020BFF5039
:0343D100380208A7
:0D43D4003C0200000000000000000000009E
:0E43E1000000000000000000000000000000CE
:0E43EF000000000000000000000000000000C0
:0C43FD000000000000000000002256023A
:06440900020BFF50380217
:0C440F00083C020000000000000000005B
:0E441B00000000000000000000000000000093
:0E442900000000000000000000000000000085
:0C44370000000000000000000000007306
:064443005602020BFF50BF
:034449003802082E
:0D444C003C02000000000000000000000025
:0E445900000000000000000000000000000055
:0E446700000000000000000000000000000047
:0C447500000000000000000000C456021F
:06448100020CFF5038029E
:0C448700083C02000000000000000000E3
:0E44930000000000000000000000000000001B
:0E44A10000000000000000000000000000000D
:0C44AF00000000000000000000000015EC
:0644BB005702020CFF5045
:0344C100380208B6
:0D44C4003C020000000000000000000000AD
:0E44D1000000000000000000000000000000DD
:0E44DF000000000000000000000000000000CF
:0C44ED0000000000000000000066570204
:0644F900020CFF50380226
:0C44FF00083C020000000000000000006B
:0E450B000000000000000000000000000000A2
:0E451900000000000000000000000000000094
:0C4527000000000000000000000000B7D1
:064533005702020DFF50CB
:034539003802083D
:0D453C003C02000000000000000000000034
:0E454900000000000000000000000000000064
:0E455700000000000000000000000000000056
:0C456500000000000000000000085802E8
:06457100020DFF503802AC
:0C457700083C02000000000000000000F2
:0E45830000000000000000000000000000002A
:0E45910000000000000000000000000000001C
:0C459F00000000000000000000000059B7
:0645AB005802020DFF5052
:0345B100380208C5
:0D45B4003C020000000000000000000000BC
:0E45C1000000000000000000000000000000EC
:0E45CF000000000000000000000000000000DE
:0C45DD00000000000000000000AA5802CE
:0645E900020EFF50380233
:0C45EF00083C020000000000000000007A
:0E45FB000000000000000000000000000000B2
:0E4609000000000000000000000000000000A3
:0C4617000000000000000000000000FB9C
:064623005802020EFF50D8
:034629003802084C
:0D462C003C02000000000000000000000043
:0E463900000000000000000000000000000073
:0E464700000000000000000000000000000065
:0C4655000000000000000000004C5902B2
:06466100020EFF503802BA
:0C466700083C0200000000000000000001
:0E467300000000000000000000000000000039
:0E46810000000000000000000000000000002B
:0C468F0000000000000000000000009D82
:06469B005902020FFF505E
:0346A100380208D4
:0D46A4003C020000000000000000000000CB
:0E46B1000000000000000000000000000000FB
:0E46BF000000000000000000000000000000ED
:0C46CD00000000000000000000EE590298
:0646D900020FFF50380241
:0C46DF00083C0200000000000000000089
:0E46EB000000000000000000000000000000C1
:0E46F9000000000000000000000000000000B3
:0C47070000000000000000000000003F67
:064713005A02020FFF50E4
:034719003802085B
:0D471C003C02000000000000000000000052
:0E472900000000000000000000000000000082
:0E473700000000000000000000000000000074
:0C474500000000000000000000905A027C
:064751000210FF503802C7
:0C475700083C0200000000000000000010
:0E476300000000000000000000000000000048
:0E47710000000000000000000000000000003A
:0C477F000000000000000000000000E14D
:06478B005A020210FF506B
:03479100380208E3
:0D4794003C020000000000000000000000DA
:0E47A10000000000000000000000000000000A
:0E47AF000000000000000000000000000000FC
:0C47BD00000000000000000000325B0261
:0647C9000210FF5038024F
:0C47CF00083C0200000000000000000098
:0E47DB000000000000000000000000000000D0
:0E47E9000000000000000000000000000000C2
:0C47F70000000000000000000000008333
:064803005B020211FF50F0
:034809003802086A
:0D480C003C02000000000000000000000061
:0E481900000000000000000000000000000091
:0E482700000000000000000000000000000083
:0C483500000000000000000000D45B0246
:064841000211FF503802D5
:0C484700083C020000000000000000001F
:0E485300000000000000000000000000000057
:0E486100000000000000000000000000000049
:0C486F0000000000000000000000002518
:06487B005C020211FF5077
:03488100380208F2
:0D4884003C020000000000000000000000E9
:0E489100000000000000000000000000000019
:0E489F0000000000000000000000000000000B
:0C48AD00000000000000000000765C022B
:0648B9000205FF20380299
:0C48BF008A3B0200000000000000000026
:0E48CB000000000000000000000000000000DF
:0E48D9000000000000000000000000000000D1
:0C48E7000000000000000000000000C7FE
:0648F3005C020205FF203B
:0348F900380290F2
:0D48FC003B02000000000000000000000072
:0E4909000000000000000000000000000000A0
:0E491700000000000000000000000000000092
:0C492500000000000000000000185D020F
:064931000200FF503802F5
:0C493700843B02000000000000000000B3
:0E494300000000000000000000000000000066
:0E495100000000000000000000000000000058
:0C495F00000000000000000000000063E9
:06496B005D020205FF5091
:034971003802F019
:0D4974003B020000000000000000000000F9
:0E498100000000000000000000000000000028
:0E498F0000000000000000000000000000001A
:09499D0000000000000000000011
:0E49A60050726F6772616D6F77616E69652088
:0E49B40070616D696563693A20282020202912
:0E49C200207A20282564292E2050726F737AE7
